:020000040800F2
:10000000C0040020450100086B0D0008CF0C00085B
:10001000690D0008D5010008F10E0008000000007D
:100020000000000000000000000000006F0D00084C
:10003000D7010008000000006D0D0008710D0008D8
:100040005F0100085F0100085F0100085F01000810
:100050005F0100085F0100085F0100085F01000800
:100060005F0100085F0100085F0100085F010008F0
:100070005F0100085F0100085F0100085F010008E0
:100080005F0100085F0100085F0100085F010008D0
:100090005F0100085F0100085F0100085F010008C0
:1000A0005F0100085F0100085F0100085F010008B0
:1000B0005F0100085F0100085F0100085F010008A0
:1000C0005F0100085F0100085F0100085F01000890
:1000D0005F0100085F0100085F0100085F01000880
:1000E0005F0100085F0100085F0100085F01000870
:1000F0005F0100085F0100085F0100085F01000860
:100100005F0100085F0100085F0100085F0100084F
:100110005F0100085F0100085F0100085F0100083F
:100120005F0100085F0100085F0100085F0100082F
:10013000DFF80CD000F03CF800480047B911000887
:10014000C00400200648804706480047FEE7FEE757
:10015000FEE7FEE7FEE7FEE7FEE7FEE7FEE7FEE777
:10016000D30D00083101000840EA01039B0703D0CA
:1001700009E008C9121F08C0042AFAD203E011F8E6
:10018000013B00F8013B521EF9D27047D2B201E0A8
:1001900000F8012B491EFBD270470022F6E710B58C
:1001A00013460A4604461946FFF7F0FF204610BDE5
:1001B000064C074D06E0E06840F0010394E80700B4
:1001C00098471034AC42F6D3FFF7B6FFCC120008C4
:1001D000EC120008FEE7704770B5044600F010F915
:1001E0000546601C02D004480078044400F008F979
:1001F000401BA042FAD370BD300000202DE9F84F1B
:10020000DFF8C891002409F1040A0AF1040B23461F
:100210000F270BF1040ED1E00125A54006EA0502E7
:10022000AA4276D1DFF8A8C14E68A6EB0C08664555
:100230002BD00DDC032E34D005DC36B3012E19D0C3
:10024000022E2FD11BE0112E16D0122E2AD119E02A
:10025000B8F5881F19D006DCB8F5803F15D0B8F581
:10026000801F1FD111E0B8F5001F0ED0B8F5041F94
:1002700018D10AE0CB6815E0CB681B1D12E0CB68F3
:1002800008330FE0CB680C330CE08B682BB1012BEB
:100290004FF0080303D0456104E0042302E0056148
:1002A00000E00023FF2A01D8064601E000F1040621
:1002B0004FEA840501D9A5F12005D6F8008007FA98
:1002C00005FC28EA0C0803FA05F548EA0508C6F813
:1002D00000804D68ED0070D53E4DAE6946F00106D8
:1002E000AE61AD6924F0030605F0010500953A4DB5
:1002F00006EB050CDCF80850A607360F07FA06F8DF
:1003000025EA0805DFF8D480404503D14FF0000806
:1003100025E052E0DFF8C880404502D14FF00108E7
:100320001DE0DFF8C080404502D14FF0020816E022
:10033000DFF8B480404502D14FF003080FE0DFF84A
:10034000AC80404502D14FF0040808E0DFF8A080FF
:10035000404502D14FF0050801E04FF0060808FAC9
:1003600006F848EA0508CCF808804D68D9F800601E
:10037000ED034D4601D5164300E096432E604D68CF
:10038000DAF80060AD03554601D5164300E0964308
:100390002E604D68DBF80060ED025D4601D5164326
:1003A00000E096432E604D68DEF80060AD027546B1
:1003B00001D5164300E096432E60641C0A68164679
:1003C000E2407FF429AFBDE8F88F0000000401404F
:1003D0000000111000100240000001400008014020
:1003E000000C0140001001400014014000180140C1
:1003F000001C01400AB1016170470904FBE70000DD
:100400000148806870470000300000200248816881
:10041000027811448160704730000020074810B511
:10042000016841F010010160032000F067F800202E
:1004300000F006F800F024F8002010BD0020024073
:1004400070B50D4D04464FF47A712878B1FBF0F089
:100450000A490968B1FBF0F000F0DEFA48B9102C47
:1004600007D200222146501E00F028F800206C60C0
:1004700070BD012070BD0000300000203C00002055
:100480000C4808B5816941F001018161816901F081
:1004900001010091C16941F08051C161C06900F062
:1004A000805000900448416821F0E06141F0807183
:1004B000416008BD0010024000000140F0B40E4B46
:1004C0001B680C46C3F30223C3F10705042D00D9B2
:1004D0000425191D072901D2002300E0DB1E012697
:1004E00006FA05F1491E214099409E40761E1640AD
:1004F0003143F0BC00F0FDBC0CED00E0064900F01B
:10050000070208684FF6FF03184040EA0220034A3A
:1005100010430860704700000CED00E00000FA0591
:100520002DE9F0470F46050061D0434E306800F0DA
:100530000700B84209D2306820F007003843306025
:10054000306800F00700B84251D128683B4C810761
:1005500012D5400703D5606840F4E06060602878F9
:10056000000703D5606840F4605060606068A96867
:1005700020F0F000084360602878C00728D0686841
:10058000012810D02168022810D0890700292EDA0E
:10059000616821F0030101436160FFF731FF80468C
:1005A00041F288390DE021688903EFE78901EDE721
:1005B000FFF726FFA0EB0801494502D90320BDE85B
:1005C000F0876068696800F00C00B0EB810FEFD134
:1005D000306800F00700B8420BD9306820F00700FF
:1005E00038433060306800F00700B84201D0012085
:1005F000E5E72878400705D56068E96820F4E06001
:10060000084360602878000706D56068296920F4EF
:10061000605040EAC100606000F038F86168084A44
:10062000C1F30311515CC8400649086006480068E0
:10063000FFF706FF0020C2E7002002400010024042
:10064000B41200083C000020340000200448054992
:1006500000684968044AC1F30221515CC8407047F0
:100660003C00002000100240C41200080448054964
:1006700000684968044AC1F3C221515CC840704710
:100680003C00002000100240C412000812A185B0F6
:100690000FC98DE80F0014A0144A00680490516837
:1006A000134801F00C03042B10D0082B0ED1C1F31A
:1006B0008343C9031DF803000AD5516804AAC1F396
:1006C0004041515C0A4A5043B0FBF1F005B070471D
:1006D00008494843FAE70000020304050607080931
:1006E0000A0B0C0D0E0F101001020000001002404A
:1006F00000127A0000093D002DE9F84F040070D087
:100700002078C04DC00749D06868C0F38100012837
:1007100007D06868C0F38100022809D16868C00367
:1007200006D52868800339D560680028E7D035E011
:100730006068B0F5803F0BD010B1B0F5A02F11D09C
:10074000286820F480302860286820F4802002E0A7
:10075000286840F480302860606890B1FFF750FE50
:1007600006460AE0286840F480202860F0E700BFD1
:10077000FFF746FE801B642873D828688003F7D5EE
:100780000CE0FFF73DFE064605E000BFFFF738FE30
:10079000801B6428F0D828688003F7D420789A4E0C
:1007A00080074FF001094FF0000839D5686810F054
:1007B0000C0F07D06868C0F38100022809D168686F
:1007C000C00306D42868800714D52069012808D101
:1007D00010E02069B0B1C6F80090FFF711FE07469F
:1007E00005E00AE1FFF70CFEC01B0228C4D8286808
:1007F0008007F7D52868616920F0F80040EAC10059
:1008000028600DE0C6F80080FFF7FAFD074604E017
:10081000FFF7F6FDC01B022823D828688007F7D40D
:10082000207800072CD57948A169D9B1C0F800908B
:10083000FFF7E6FD074604E0FFF7E2FDC01B0228D4
:100840000FD8686A8007F7D571484FF4FA510068ED
:10085000B0FBF1F0009000BF0098411E0091FAD269
:100860000EE080E0C0F80080FFF7CAFD074604E014
:10087000FFF7C6FDC01B022875D8686A8007F7D449
:100880002078400760D5E8690027C00008D4E869EF
:1008900040F08050E861E869012700F08050009046
:1008A0005C480168C90513D40168834641F480712E
:1008B0000160FFF7A5FD824606E000BFFFF7A0FD3F
:1008C000A0EB0A0064284ED8DBF80000C005F5D57F
:1008D000E06801280AD008B1052813D0286A20F062
:1008E00001002862286A20F0040002E0286A40F033
:1008F00001002862E06841F2883B98B1FFF780FD73
:1009000082460BE0286A40F004002862EEE700BF50
:10091000FFF776FDA0EB0A0159455AD8286A8007EF
:10092000F6D50CE0FFF76CFD824605E0FFF768FDA9
:10093000A0EB0A0159454CD8286A8007F6D41FB1AC
:10094000E86920F08050E861E06988B36968C1F324
:100950008101022944D00228C6F8608004D0FFF744
:100960004FFD044638E034E0FFF74AFD074604E057
:10097000FFF746FDC01B02282BD828688001F7D45A
:10098000206AB0F5803F05D16868A16820F4003086
:1009900008436860D4E908010843696821F47411C8
:1009A00008436860C6F86090FFF72AFD044606E039
:1009B00025E000BFFFF724FD001B022809D82868A6
:1009C0008001F7D51BE000BFFFF71AFD001B0228CE
:1009D00002D90320BDE8F88F28688001F4D40EE026
:1009E0000128F7D06868226A00F48031914204D16E
:1009F000616A00F47010884201D00120EAE700200B
:100A0000E8E7000000100240000042428004424239
:100A10003C0000200070004010B5401EB0F1807F07
:100A200001D3012010BD4FF0E02460610F21601759
:100A300000F05FFA0020A06107202061002010BDB7
:100A400070B5040004D094F83900002510B106E018
:100A5000012070BD84F83850204600F023F824208F
:100A600084F839002068C16821F40051C160204633
:100A700000F0B0F92068016921F49041016120681B
:100A8000416921F02A0141612068C16841F40051A7
:100A9000C160E563202084F8390084F83A00002022
:100AA00070BD000070B586B00024009401940294DB
:100AB000039403682648254E022103220515B342FC
:100AC0001ED1836943F480438361836903F48043C7
:100AD0000493836943F00403836180691D4E00F031
:100AE000040004900802CDE90001039269463046F3
:100AF000FFF784FBCDE9005469463046029420E0BC
:100B0000154EB3421FD1C36943F48023C361C36947
:100B100003F480230493836943F0080383618069AD
:100B2000CDE9005100F00800CDE903200B4D6946E6
:100B30002846FFF763FBE814CDE900046946284620
:100B40000294FFF75BFB06B070BD00000038014067
:100B5000001002400008014000480040000C014025
:100B60002DE9F84F044690F83A009A4616460D468D
:100B7000202851D1EDB1E6B194F8380001284BD0CE
:100B8000012084F838000027E763222084F83A0027
:100B9000FFF736FCA6858146E685A0684FF48058AD
:100BA000404501D1206938B12E46002584F83870BF
:100BB00027E00120BDE8F88F0026F7E74B4600222A
:100BC00020212046CDF800A000F060F908B10320F4
:100BD000F0E726B1A06840451BD038B108E0206896
:100BE0004068C0F3080025F8020B07E0206980B1D7
:100BF0002068406800F07F0006F8010BE08D401E81
:100C0000E085E08D0028D9D1202084F83A0000202A
:100C1000D0E720684068EFE70220CBE72DE9F843F2
:100C2000044690F839001F4616460D4620284CD140
:100C3000C5B1BEB194F83800012846D0012084F82F
:100C400038004FF00008C4F83C80212084F83900B7
:100C5000FFF7D6FBA6848146E684A068B0F5805FE6
:100C600003D004E00120BDE8F883206928B12E46B6
:100C70005FF0000584F838800EE00026FAE7802156
:100C8000204600F003F9A0B9AEB116F8010B2168B7
:100C90004860E08C401EE084E08C4B464FF0000240
:100CA00000970028EBD14FF04001204600F0EEF80D
:100CB00030B10320D7E735F8020BC0F30800E6E7B0
:100CC000202084F839000020CDE70220CBE7FEE7A2
:100CD0002DE9F04186B0002420480094019402944C
:100CE0000394816941F010018161816901F0100173
:100CF0000491816941F004018161816901F004017D
:100D00000491816941F0080181618069144F00F00C
:100D100008000490002210213846FFF76BFBDFF833
:100D20004480002220214046FFF764FB102001256B
:100D30000226CDE90005CDE9024669463846FFF7AF
:100D40005DFA2020CDE90005CDE90246694640461E
:100D5000FFF754FA06B0BDE8F08100000010024031
:100D600000080140000C0140FEE7FEE770477047B5
:100D7000FFF74CBB30B58FB028216846FFF70DFA5E
:100D800014210AA8FFF709FA01210804CDE900108F
:100D90000024029402250491CDE907504FF4E0109D
:100DA00009906846FFF7A8FC08B172B6FEE70F206D
:100DB000CDE90A054FF48060CDE90C4002210AA874
:100DC0000E94FFF7ADFB002801D072B6FEE70FB01E
:100DD00030BD704770B5044600680169E26821F4CF
:100DE0004051114301612169A068084361690843CA
:100DF0002168CA6841F20C639A430243CA602068C2
:100E00004169A26921F44071114341611E49206882
:100E1000884202D1FFF72AFC01E0FFF717FC00EB44
:100E2000C00101EB0012606864218000B2FBF0F3A6
:100E3000B3FBF1F36FF018067343B2FBF0F5B2FBAE
:100E4000F0F605EB8305322303EB0515B5FBF1F551
:100E5000B6FBF1F605F0F00505EB0615B2FBF0F672
:100E6000B2FBF0F0B0FBF1F06FF01802504306EB6C
:100E7000800003EB0010B0FBF1F0216800F00F00E0
:100E80002844886070BD0000003801402DE9F04121
:100E9000984617460E460446069D1DE0681C1BD06A
:100EA0002DB1FFF7ADFAA0EB0800A84214D92068D5
:100EB000C16821F4D071C1602068416921F001014D
:100EC0004161202084F8390084F83A00002084F839
:100ED00038000320BDE8F0812068006836EA000091
:100EE00004D00020B842D9D00020F3E70120F9E770
:100EF000FEE70907090E002804DB00F1E02080F876
:100F00000014704700F00F0000F1E02080F8141D7D
:100F1000704702E008C8121F08C1002AFAD17047C2
:100F20007047002001E001C1121F002AFBD1704769
:100F300030B57EA3B9B00FCB2DAC84E80F0064218F
:100F40006846FFF72AF97D4C002210212046FFF762
:100F500051FAC820FFF740F9012210212046FFF77F
:100F600049FA4FF4FA60FFF737F964230D222DA9EF
:100F70007348FFF753FE4FF47A74234664226946A0
:100F80006F48FFF7EDFD6E48C8236422694640387C
:100F9000FFF744FE64216846FFF7FFF868486423C2
:100FA0000D222DA94038FFF739FE41F28835284639
:100FB000FFF712F9242263A124A8FFF7D5F8322302
:100FC000212224A95E48FFF729FE234664226946B0
:100FD0005B48FFF7C5FD5A48C8236422694640387C
:100FE000FFF71CFE64216846FFF7D7F854486423D6
:100FF000212224A94038FFF711FE6800FFF7ECF822
:101000002C2259A119A8FFF7AFF83223282219A9D9
:101010004B48FFF703FE2346642269464848FFF722
:101020009FFD4748C823642269464038FFF7F6FD14
:1010300064216846FFF7B1F841486423262219A9C4
:101040004038FFF7EBFD2846FFF7C6F851A00DF139
:10105000C40C0FC88CE80F0032230E2231A9384887
:10106000FFF7DCFD2346642269463548FFF778FD2B
:101070003348C823642269464038FFF7CFFD642116
:101080006846FFF78AF82E4864230E2231A94038BB
:10109000FFF7C4FD2846FFF79FF842A30DF1D40CDB
:1010A0000FCB8CE80F0032230C2235A92448FFF720
:1010B000B5FD2346642269462148FFF751FD2048CB
:1010C000C823642269464038FFF7A8FD64216846BA
:1010D000FFF763F81A4864230C2235A94038FFF75C
:1010E0009DFD2846FFF778F86423242231491448EF
:1010F000FFF794FD40F6B833642269461048FFF7C5
:101100002FFD0F48C823642269464038FFF786FD4B
:1011100064216846FFF741F80948642324222549E1
:101120004038FFF77BFD39B030BD000041542B4300
:10113000574D4F44453D330D0A0000000008014063
:101140008000002041542B43574A41503D22434DDB
:1011500043432D47394179222C2237353239347AAD
:10116000317A220D0A00000041542B434950535458
:101170004152543D22544350222C223138332E32D6
:1011800033302E34302E3339222C363030320D0AA3
:101190000000000041542B4349504D4F44453D3120
:1011A0000D0A000041542B43495053454E440D0A4B
:1011B000000000000000002096B0FFF72FF930A0DB
:1011C0000FC88DE80F00142231A110A8FEF7CCFF44
:1011D000FFF7D0FDFFF77CFD334832494FF4E1358E
:1011E00000240160C0E901540C26C460C0E9044633
:1011F0008461C461FFF724FC08B172B6FEE72A4897
:101200002A4940300160C0E90154C460C0E9044685
:101210008461C461FFF714FC08B172B6FEE7FFF702
:1012200087FE234C204864232F2204A94030FFF777
:1012300097FC9DF83E0030280ED102230F2269460C
:101240001948FFF7EBFC012220212046FFF7D2F8D6
:10125000302104A8FEF7A1FF9DF83E003128E1D11E
:1012600064230F2269461048FFF7D8FC0022202192
:101270002046FFF7BFF8302104A8FEF78EFFD1E724
:10128000692068617665207265636569766500002E
:1012900069206469646E2774207265636569766588
:1012A00000000000003801404000002000480040DD
:1012B000000C0140000000000000000001020304D7
:1012C000060708090000000001020304EC120008F0
:1012D0000000002040000000120F00082C1300083E
:1012E0004000002080040000220F000810220004AB
:1012F0004D51545404C2007800093639383934301D
:1013000030373400063431303938370003616161D9
:1013100000000000000000000000000001000000CC
:0C13200010000000000000000024F40099
:0400000508000131BD
:00000001FF
